{
  "abi": [
    {
      "inputs": [],
      "stateMutability": "nonpayable",
      "type": "constructor"
    },
    {
      "anonymous": false,
      "inputs": [
        {
          "indexed": true,
          "internalType": "address",
          "name": "previousOwner",
          "type": "address"
        },
        {
          "indexed": true,
          "internalType": "address",
          "name": "newOwner",
          "type": "address"
        }
      ],
      "name": "OwnershipTransferred",
      "type": "event"
    },
    {
      "anonymous": false,
      "inputs": [
        {
          "indexed": false,
          "internalType": "address",
          "name": "cookieJar",
          "type": "address"
        },
        {
          "indexed": false,
          "internalType": "bytes",
          "name": "initializer",
          "type": "bytes"
        },
        {
          "indexed": false,
          "internalType": "string",
          "name": "details",
          "type": "string"
        },
        {
          "indexed": false,
          "internalType": "string",
          "name": "uid",
          "type": "string"
        }
      ],
      "name": "SummonCookieJar",
      "type": "event"
    },
    {
      "inputs": [],
      "name": "owner",
      "outputs": [
        {
          "internalType": "address",
          "name": "",
          "type": "address"
        }
      ],
      "stateMutability": "view",
      "type": "function"
    },
    {
      "inputs": [],
      "name": "renounceOwnership",
      "outputs": [],
      "stateMutability": "nonpayable",
      "type": "function"
    },
    {
      "inputs": [
        {
          "internalType": "address",
          "name": "_moduleProxyFactory",
          "type": "address"
        }
      ],
      "name": "setProxyFactory",
      "outputs": [],
      "stateMutability": "nonpayable",
      "type": "function"
    },
    {
      "inputs": [
        {
          "internalType": "address",
          "name": "_singleton",
          "type": "address"
        },
        {
          "internalType": "bytes",
          "name": "_initializer",
          "type": "bytes"
        },
        {
          "internalType": "string",
          "name": "_details",
          "type": "string"
        },
        {
          "internalType": "uint256",
          "name": "_saltNonce",
          "type": "uint256"
        }
      ],
      "name": "summonCookieJar",
      "outputs": [
        {
          "internalType": "address",
          "name": "",
          "type": "address"
        }
      ],
      "stateMutability": "nonpayable",
      "type": "function"
    },
    {
      "inputs": [
        {
          "internalType": "address",
          "name": "newOwner",
          "type": "address"
        }
      ],
      "name": "transferOwnership",
      "outputs": [],
      "stateMutability": "nonpayable",
      "type": "function"
    }
  ],
  "bytecode": {
    "object": "0x608060405234801561001057600080fd5b5061001a3361001f565b61006f565b600080546001600160a01b038381166001600160a01b0319831681178455604051919092169283917f8be0079c531659141344cd1fd0a4f28419497f9722a3daafe3b4186f6b6457e09190a35050565b61089d8061007e6000396000f3fe608060405234801561001057600080fd5b50600436106100575760003560e01c8063715018a61461005c5780638da5cb5b14610066578063e5b0bde31461008f578063f2fde38b146100a2578063fbddd751146100b5575b600080fd5b6100646100c8565b005b6000546001600160a01b03165b6040516001600160a01b03909116815260200160405180910390f35b61007361009d36600461060f565b6100dc565b6100646100b03660046106b8565b6101ae565b6100646100c33660046106b8565b61022c565b6100d0610256565b6100da60006102b0565b565b600154604051633c6ae1cf60e21b815260009182916001600160a01b039091169063f1ab873c9061011590899089908890600401610725565b6020604051808303816000875af1158015610134573d6000803e3d6000fd5b505050506040513d601f19601f820116820180604052508101906101589190610759565b9050600061016582610300565b90507fe82a16f418bac6bbd026f89ca451c913298150783a0faacbe2d8e17a5eb5c7fb8287878460405161019c9493929190610776565b60405180910390a15095945050505050565b6101b6610256565b6001600160a01b0381166102205760405162461bcd60e51b815260206004820152602660248201527f4f776e61626c653a206e6577206f776e657220697320746865207a65726f206160448201526564647265737360d01b60648201526084015b60405180910390fd5b610229816102b0565b50565b610234610256565b600180546001600160a01b0319166001600160a01b0392909216919091179055565b6000546001600160a01b031633146100da5760405162461bcd60e51b815260206004820181905260248201527f4f776e61626c653a2063616c6c6572206973206e6f7420746865206f776e65726044820152606401610217565b600080546001600160a01b038381166001600160a01b0319831681178455604051919092169283917f8be0079c531659141344cd1fd0a4f28419497f9722a3daafe3b4186f6b6457e09190a35050565b6060610314826001600160a01b0316610344565b61031d46610344565b60405160200161032e9291906107cb565b6040516020818303038152906040529050919050565b606061035b8261035384610361565b6001016103cb565b92915050565b600080608083901c156103795760809290921c916010015b604083901c1561038e5760409290921c916008015b602083901c156103a35760209290921c916004015b601083901c156103b85760109290921c916002015b600883901c1561035b5760010192915050565b606060006103da836002610810565b6103e5906002610827565b67ffffffffffffffff8111156103fd576103fd610583565b6040519080825280601f01601f191660200182016040528015610427576020820181803683370190505b509050600360fc1b816000815181106104425761044261083a565b60200101906001600160f81b031916908160001a905350600f60fb1b816001815181106104715761047161083a565b60200101906001600160f81b031916908160001a9053506000610495846002610810565b6104a0906001610827565b90505b6001811115610518576f181899199a1a9b1b9c1cb0b131b232b360811b85600f16601081106104d4576104d461083a565b1a60f81b8282815181106104ea576104ea61083a565b60200101906001600160f81b031916908160001a90535060049490941c9361051181610850565b90506104a3565b5083156105675760405162461bcd60e51b815260206004820181905260248201527f537472696e67733a20686578206c656e67746820696e73756666696369656e746044820152606401610217565b9392505050565b6001600160a01b038116811461022957600080fd5b634e487b7160e01b600052604160045260246000fd5b600067ffffffffffffffff808411156105b4576105b4610583565b604051601f8501601f19908116603f011681019082821181831017156105dc576105dc610583565b816040528093508581528686860111156105f557600080fd5b858560208301376000602087830101525050509392505050565b6000806000806080858703121561062557600080fd5b84356106308161056e565b9350602085013567ffffffffffffffff8082111561064d57600080fd5b818701915087601f83011261066157600080fd5b61067088833560208501610599565b9450604087013591508082111561068657600080fd5b508501601f8101871361069857600080fd5b6106a787823560208401610599565b949793965093946060013593505050565b6000602082840312156106ca57600080fd5b81356105678161056e565b60005b838110156106f05781810151838201526020016106d8565b50506000910152565b600081518084526107118160208601602086016106d5565b601f01601f19169290920160200192915050565b6001600160a01b0384168152606060208201819052600090610749908301856106f9565b9050826040830152949350505050565b60006020828403121561076b57600080fd5b81516105678161056e565b6001600160a01b038516815260806020820181905260009061079a908301866106f9565b82810360408401526107ac81866106f9565b905082810360608401526107c081856106f9565b979650505050505050565b600083516107dd8184602088016106d5565b8351908301906107f18183602088016106d5565b01949350505050565b634e487b7160e01b600052601160045260246000fd5b808202811582820484141761035b5761035b6107fa565b8082018082111561035b5761035b6107fa565b634e487b7160e01b600052603260045260246000fd5b60008161085f5761085f6107fa565b50600019019056fea264697066735822122079d45486c6d7bb6caa7379559bb33ca25fee53dd4fa57ecb71bddd135eaf5cb064736f6c63430008130033",
    "linkReferences": {}
  },
  "methodIdentifiers": {
    "owner()": "8da5cb5b",
    "renounceOwnership()": "715018a6",
    "setProxyFactory(address)": "fbddd751",
    "summonCookieJar(address,bytes,string,uint256)": "e5b0bde3",
    "transferOwnership(address)": "f2fde38b"
  },
  "id": 81
}