{
  "abi": [
    {
      "anonymous": false,
      "inputs": [
        {
          "indexed": true,
          "internalType": "address",
          "name": "cookieMonster",
          "type": "address"
        },
        {
          "indexed": false,
          "internalType": "uint256",
          "name": "amount",
          "type": "uint256"
        },
        {
          "indexed": false,
          "internalType": "string",
          "name": "_uid",
          "type": "string"
        }
      ],
      "name": "GiveCookie",
      "type": "event"
    },
    {
      "anonymous": false,
      "inputs": [
        {
          "indexed": false,
          "internalType": "uint8",
          "name": "version",
          "type": "uint8"
        }
      ],
      "name": "Initialized",
      "type": "event"
    },
    {
      "anonymous": false,
      "inputs": [
        {
          "indexed": true,
          "internalType": "address",
          "name": "previousOwner",
          "type": "address"
        },
        {
          "indexed": true,
          "internalType": "address",
          "name": "newOwner",
          "type": "address"
        }
      ],
      "name": "OwnershipTransferred",
      "type": "event"
    },
    {
      "anonymous": false,
      "inputs": [
        {
          "indexed": false,
          "internalType": "bytes",
          "name": "initializationParams",
          "type": "bytes"
        }
      ],
      "name": "Setup",
      "type": "event"
    },
    {
      "inputs": [],
      "name": "PERC_POINTS",
      "outputs": [
        {
          "internalType": "uint256",
          "name": "",
          "type": "uint256"
        }
      ],
      "stateMutability": "view",
      "type": "function"
    },
    {
      "inputs": [],
      "name": "POSTER_ADDR",
      "outputs": [
        {
          "internalType": "address",
          "name": "",
          "type": "address"
        }
      ],
      "stateMutability": "view",
      "type": "function"
    },
    {
      "inputs": [],
      "name": "POSTER_TAG",
      "outputs": [
        {
          "internalType": "string",
          "name": "",
          "type": "string"
        }
      ],
      "stateMutability": "view",
      "type": "function"
    },
    {
      "inputs": [],
      "name": "POSTER_UID",
      "outputs": [
        {
          "internalType": "string",
          "name": "",
          "type": "string"
        }
      ],
      "stateMutability": "view",
      "type": "function"
    },
    {
      "inputs": [],
      "name": "SUSTAINABILITY_ADDR",
      "outputs": [
        {
          "internalType": "address",
          "name": "",
          "type": "address"
        }
      ],
      "stateMutability": "view",
      "type": "function"
    },
    {
      "inputs": [],
      "name": "SUSTAINABILITY_FEE",
      "outputs": [
        {
          "internalType": "uint256",
          "name": "",
          "type": "uint256"
        }
      ],
      "stateMutability": "view",
      "type": "function"
    },
    {
      "inputs": [
        {
          "internalType": "address",
          "name": "allowed",
          "type": "address"
        }
      ],
      "name": "allowList",
      "outputs": [
        {
          "internalType": "bool",
          "name": "isAllowed",
          "type": "bool"
        }
      ],
      "stateMutability": "view",
      "type": "function"
    },
    {
      "inputs": [
        {
          "internalType": "string",
          "name": "_cookieUid",
          "type": "string"
        },
        {
          "internalType": "bool",
          "name": "_isGood",
          "type": "bool"
        }
      ],
      "name": "assessReason",
      "outputs": [],
      "stateMutability": "nonpayable",
      "type": "function"
    },
    {
      "inputs": [
        {
          "internalType": "address[]",
          "name": "_addresses",
          "type": "address[]"
        },
        {
          "internalType": "bool[]",
          "name": "_isAlloweds",
          "type": "bool[]"
        }
      ],
      "name": "batchAllowList",
      "outputs": [],
      "stateMutability": "nonpayable",
      "type": "function"
    },
    {
      "inputs": [
        {
          "internalType": "address",
          "name": "user",
          "type": "address"
        }
      ],
      "name": "canClaim",
      "outputs": [
        {
          "internalType": "bool",
          "name": "allowed",
          "type": "bool"
        }
      ],
      "stateMutability": "view",
      "type": "function"
    },
    {
      "inputs": [
        {
          "internalType": "address",
          "name": "claimer",
          "type": "address"
        }
      ],
      "name": "claims",
      "outputs": [
        {
          "internalType": "uint256",
          "name": "dateTime",
          "type": "uint256"
        }
      ],
      "stateMutability": "view",
      "type": "function"
    },
    {
      "inputs": [],
      "name": "cookieAmount",
      "outputs": [
        {
          "internalType": "uint256",
          "name": "",
          "type": "uint256"
        }
      ],
      "stateMutability": "view",
      "type": "function"
    },
    {
      "inputs": [],
      "name": "cookieToken",
      "outputs": [
        {
          "internalType": "address",
          "name": "",
          "type": "address"
        }
      ],
      "stateMutability": "view",
      "type": "function"
    },
    {
      "inputs": [],
      "name": "owner",
      "outputs": [
        {
          "internalType": "address",
          "name": "",
          "type": "address"
        }
      ],
      "stateMutability": "view",
      "type": "function"
    },
    {
      "inputs": [],
      "name": "periodLength",
      "outputs": [
        {
          "internalType": "uint256",
          "name": "",
          "type": "uint256"
        }
      ],
      "stateMutability": "view",
      "type": "function"
    },
    {
      "inputs": [
        {
          "internalType": "string",
          "name": "_reason",
          "type": "string"
        }
      ],
      "name": "reachInJar",
      "outputs": [],
      "stateMutability": "nonpayable",
      "type": "function"
    },
    {
      "inputs": [
        {
          "internalType": "address",
          "name": "cookieMonster",
          "type": "address"
        },
        {
          "internalType": "string",
          "name": "_reason",
          "type": "string"
        }
      ],
      "name": "reachInJar",
      "outputs": [],
      "stateMutability": "nonpayable",
      "type": "function"
    },
    {
      "inputs": [],
      "name": "renounceOwnership",
      "outputs": [],
      "stateMutability": "nonpayable",
      "type": "function"
    },
    {
      "inputs": [
        {
          "internalType": "address",
          "name": "_address",
          "type": "address"
        },
        {
          "internalType": "bool",
          "name": "_isAllowed",
          "type": "bool"
        }
      ],
      "name": "setAllowList",
      "outputs": [],
      "stateMutability": "nonpayable",
      "type": "function"
    },
    {
      "inputs": [
        {
          "internalType": "uint256",
          "name": "_periodLength",
          "type": "uint256"
        },
        {
          "internalType": "uint256",
          "name": "_cookieAmount",
          "type": "uint256"
        },
        {
          "internalType": "address",
          "name": "_cookieToken",
          "type": "address"
        }
      ],
      "name": "setConfig",
      "outputs": [],
      "stateMutability": "nonpayable",
      "type": "function"
    },
    {
      "inputs": [
        {
          "internalType": "bytes",
          "name": "_initializationParams",
          "type": "bytes"
        }
      ],
      "name": "setUp",
      "outputs": [],
      "stateMutability": "nonpayable",
      "type": "function"
    },
    {
      "inputs": [],
      "name": "target",
      "outputs": [
        {
          "internalType": "address",
          "name": "",
          "type": "address"
        }
      ],
      "stateMutability": "view",
      "type": "function"
    },
    {
      "inputs": [
        {
          "internalType": "address",
          "name": "newOwner",
          "type": "address"
        }
      ],
      "name": "transferOwnership",
      "outputs": [],
      "stateMutability": "nonpayable",
      "type": "function"
    }
  ],
  "bytecode": {
    "object": "0x608060405234801561001057600080fd5b50612007806100206000396000f3fe608060405234801561001057600080fd5b506004361061014c5760003560e01c8063a4f9edbf116100c3578063caedeefd1161007c578063caedeefd14610303578063d2ca21151461030d578063d4b8399214610316578063e858d17514610329578063f12d5c8414610332578063f2fde38b1461033a57600080fd5b8063a4f9edbf14610284578063b50c99b714610297578063b8038b3e146102aa578063bf3506c1146102bd578063c5393163146102d0578063c6788bdd146102e357600080fd5b8063500cae4c11610115578063500cae4c1461021d57806357a02bdf14610232578063715018a6146102455780637666f1251461024d5780638da5cb5b14610260578063a1638f571461027157600080fd5b8062f5afa8146101515780631fb2f7121461016d5780632848aeaf146101a05780632d43fef1146101d357806340238a7614610208575b600080fd5b61015a61271081565b6040519081526020015b60405180910390f35b610188734a9a27d614a74ee5524909ca27bdbcbb7ed3b31581565b6040516001600160a01b039091168152602001610164565b6101c36101ae3660046114a2565b606b6020526000908152604090205460ff1681565b6040519015158152602001610164565b6101fb6040518060400160405280600981526020016821b7b7b5b4b2a530b960b91b81525081565b604051610164919061150f565b6101886dcd17345801aa8147b8d3950260ff81565b61023061022b36600461156a565b61034d565b005b6102306102403660046115c0565b610402565b6102306105ba565b61023061025b366004611613565b6105ce565b6033546001600160a01b0316610188565b606754610188906001600160a01b031681565b6102306102923660046116b5565b610601565b6102306102a53660046117c4565b6107c5565b6102306102b8366004611885565b6108a3565b6101c36102cb3660046114a2565b6108d5565b6102306102de3660046118be565b610907565b61015a6102f13660046114a2565b60696020526000908152604090205481565b61015a620f424081565b61015a60685481565b606a54610188906001600160a01b031681565b61015a60665481565b6101fb6109b0565b6102306103483660046114a2565b610a3e565b336000908152606b602052604090205460ff166103855760405162461bcd60e51b815260040161037c90611912565b60405180910390fd5b61038e33610ab7565b6103d55760405162461bcd60e51b81526020600482015260186024820152771b9bdd0818481d985b1a590818db185a5b481c195c9a5bd960421b604482015260640161037c565b3360008181526069602052604090204290556066546103f49190610b05565b6103fe8282610bf7565b5050565b336000908152606b602052604090205460ff166104315760405162461bcd60e51b815260040161037c90611912565b60006040518060400160405280600981526020016821b7b7b5b4b2a530b960b91b8152506065858560405160200161046c94939291906119e5565b60408051601f198184030181529190529050600061048b336014610ce4565b90508215610525576dcd17345801aa8147b8d3950260ff6001600160a01b0316630ae1b13d826040516020016104c19190611a3c565b604051602081830303815290604052846040518363ffffffff1660e01b81526004016104ee929190611a67565b600060405180830381600087803b15801561050857600080fd5b505af115801561051c573d6000803e3d6000fd5b505050506105b3565b6dcd17345801aa8147b8d3950260ff6001600160a01b0316630ae1b13d826040516020016105539190611a95565b604051602081830303815290604052846040518363ffffffff1660e01b8152600401610580929190611a67565b600060405180830381600087803b15801561059a57600080fd5b505af11580156105ae573d6000803e3d6000fd5b505050505b5050505050565b6105c2610e86565b6105cc6000610ee0565b565b6105d6610e86565b6001600160a01b03919091166000908152606b60205260409020805460ff1916911515919091179055565b600054610100900460ff16158080156106215750600054600160ff909116105b8061063b5750303b15801561063b575060005460ff166001145b61069e5760405162461bcd60e51b815260206004820152602e60248201527f496e697469616c697a61626c653a20636f6e747261637420697320616c72656160448201526d191e481a5b9a5d1a585b1a5e995960921b606482015260840161037c565b6000805460ff1916600117905580156106c1576000805461ff0019166101001790555b600080838060200190518101906106d89190611ac2565b606a80546001600160a01b0319166001600160a01b0387161790559395509293506107089250869150610f329050565b60005b8151811015610770576001606b600084848151811061072c5761072c611b99565b6020908102919091018101516001600160a01b03168252810191909152604001600020805460ff19169115159190911790558061076881611bc5565b91505061070b565b5061077a82610a3e565b505080156103fe576000805461ff0019169055604051600181527f7f26b83ff96e1f2b6a682f133852f6798a09c465da95921460cefb38474024989060200160405180910390a15050565b6107cd610e86565b805182511461081e5760405162461bcd60e51b815260206004820152601e60248201527f436f6f6b69654a6172363535313a206c656e677468206d69736d617463680000604482015260640161037c565b60005b825181101561089e5781818151811061083c5761083c611b99565b6020026020010151606b600085848151811061085a5761085a611b99565b6020908102919091018101516001600160a01b03168252810191909152604001600020805460ff19169115159190911790558061089681611bc5565b915050610821565b505050565b6108ab610e86565b606892909255606655606780546001600160a01b0319166001600160a01b03909216919091179055565b6001600160a01b0381166000908152606b602052604081205460ff168015610901575061090182610ab7565b92915050565b336000908152606b602052604090205460ff166109365760405162461bcd60e51b815260040161037c90611912565b61093f33610ab7565b6109865760405162461bcd60e51b81526020600482015260186024820152771b9bdd0818481d985b1a590818db185a5b481c195c9a5bd960421b604482015260640161037c565b3360009081526069602052604090204290556066546109a6908490610b05565b61089e8282610bf7565b606580546109bd90611938565b80601f01602080910402602001604051908101604052809291908181526020018280546109e990611938565b8015610a365780601f10610a0b57610100808354040283529160200191610a36565b820191906000526020600020905b815481529060010190602001808311610a1957829003601f168201915b505050505081565b610a46610e86565b6001600160a01b038116610aab5760405162461bcd60e51b815260206004820152602660248201527f4f776e61626c653a206e6577206f776e657220697320746865207a65726f206160448201526564647265737360d01b606482015260840161037c565b610ab481610ee0565b50565b6068546001600160a01b038216600090815260696020526040812054909190610ae09042611bde565b1015806109015750506001600160a01b03166000908152606960205260409020541590565b606754610b1e90839083906001600160a01b0316610fd5565b816001600160a01b03167f2cc90d9a18273a3e516507485d7e22ae77eabb3724ab0f958ba528eb2e58505a82610bdd60658054610b5a90611938565b80601f0160208091040260200160405190810160405280929190818152602001828054610b8690611938565b8015610bd35780601f10610ba857610100808354040283529160200191610bd3565b820191906000526020600020905b815481529060010190602001808311610bb657829003601f168201915b505050505061131f565b604051610beb929190611bf1565b60405180910390a25050565b60006040518060400160405280600981526020016821b7b7b5b4b2a530b960b91b8152506065610c2d60658054610b5a90611938565b604051602001610c3f93929190611c12565b60405160208183030381529060405290506dcd17345801aa8147b8d3950260ff6001600160a01b0316630ae1b13d848484604051602001610c809190611c6c565b6040516020818303038152906040526040518463ffffffff1660e01b8152600401610cad93929190611c88565b600060405180830381600087803b158015610cc757600080fd5b505af1158015610cdb573d6000803e3d6000fd5b50505050505050565b60606000610cf3836002611cd0565b610cfe906002611ce7565b6001600160401b03811115610d1557610d15611648565b6040519080825280601f01601f191660200182016040528015610d3f576020820181803683370190505b509050600360fc1b81600081518110610d5a57610d5a611b99565b60200101906001600160f81b031916908160001a905350600f60fb1b81600181518110610d8957610d89611b99565b60200101906001600160f81b031916908160001a9053506000610dad846002611cd0565b610db8906001611ce7565b90505b6001811115610e30576f181899199a1a9b1b9c1cb0b131b232b360811b85600f1660108110610dec57610dec611b99565b1a60f81b828281518110610e0257610e02611b99565b60200101906001600160f81b031916908160001a90535060049490941c93610e2981611cfa565b9050610dbb565b508315610e7f5760405162461bcd60e51b815260206004820181905260248201527f537472696e67733a20686578206c656e67746820696e73756666696369656e74604482015260640161037c565b9392505050565b6033546001600160a01b031633146105cc5760405162461bcd60e51b815260206004820181905260248201527f4f776e61626c653a2063616c6c6572206973206e6f7420746865206f776e6572604482015260640161037c565b603380546001600160a01b038381166001600160a01b0319831681179093556040519116919082907f8be0079c531659141344cd1fd0a4f28419497f9722a3daafe3b4186f6b6457e090600090a35050565b600080600083806020019051810190610f4b9190611d11565b60688390556066829055606780546001600160a01b0319166001600160a01b03831617905591955093509150610f819050611354565b610f8a30611383565b606590610f979082611da3565b507f0ef8145310f85c28ca23a3aebc4f922ea5379c7c26988ed7477cb4480646ad0184604051610fc7919061150f565b60405180910390a150505050565b6000612710610fe7620f424085611e62565b610ff19190611cd0565b606a549091506001600160a01b039081169083166111365760408051602081018252600081529051633e6e012960e11b81526001600160a01b03831691637cdc02529161105991734a9a27d614a74ee5524909ca27bdbcbb7ed3b31591879190600401611e84565b6000604051808303816000875af1158015611078573d6000803e3d6000fd5b505050506040513d6000823e601f3d908101601f191682016040526110a09190810190611eab565b506001600160a01b038116637cdc0252866110bb8588611bde565b604051806020016040528060008152506040518463ffffffff1660e01b81526004016110e993929190611e84565b6000604051808303816000875af1158015611108573d6000803e3d6000fd5b505050506040513d6000823e601f3d908101601f191682016040526111309190810190611eab565b506105b3565b604051734a9a27d614a74ee5524909ca27bdbcbb7ed3b31560601b6020820152603481018390526001600160a01b03821690637cdc025290859060009060540160408051601f19818403018152908290526111939160240161150f565b60408051601f198184030181529181526020820180516001600160e01b031663a9059cbb60e01b1790525160e085901b6001600160e01b03191681526111de93929190600401611e84565b6000604051808303816000875af11580156111fd573d6000803e3d6000fd5b505050506040513d6000823e601f3d908101601f191682016040526112259190810190611eab565b506001600160a01b038116637cdc025284600088611243878a611bde565b60405160609290921b6bffffffffffffffffffffffff19166020830152603482015260540160408051601f19818403018152908290526112859160240161150f565b60408051601f198184030181529181526020820180516001600160e01b031663a9059cbb60e01b1790525160e085901b6001600160e01b03191681526112d093929190600401611e84565b6000604051808303816000875af11580156112ef573d6000803e3d6000fd5b505050506040513d6000823e601f3d908101601f191682016040526113179190810190611eab565b505050505050565b606061090182334260405160200161133993929190611f18565b604051602081830303815290604052805190602001206113c7565b600054610100900460ff1661137b5760405162461bcd60e51b815260040161037c90611f57565b6105cc6113dc565b6060611397826001600160a01b031661140c565b6113a04661140c565b6040516020016113b1929190611fa2565b6040516020818303038152906040529050919050565b6060816040516020016113b191815260200190565b600054610100900460ff166114035760405162461bcd60e51b815260040161037c90611f57565b6105cc33610ee0565b60606109018261141b84611423565b600101610ce4565b600080608083901c1561143b5760809290921c916010015b604083901c156114505760409290921c916008015b602083901c156114655760209290921c916004015b601083901c1561147a5760109290921c916002015b600883901c156109015760010192915050565b6001600160a01b0381168114610ab457600080fd5b6000602082840312156114b457600080fd5b8135610e7f8161148d565b60005b838110156114da5781810151838201526020016114c2565b50506000910152565b600081518084526114fb8160208601602086016114bf565b601f01601f19169290920160200192915050565b602081526000610e7f60208301846114e3565b60008083601f84011261153457600080fd5b5081356001600160401b0381111561154b57600080fd5b60208301915083602082850101111561156357600080fd5b9250929050565b6000806020838503121561157d57600080fd5b82356001600160401b0381111561159357600080fd5b61159f85828601611522565b90969095509350505050565b803580151581146115bb57600080fd5b919050565b6000806000604084860312156115d557600080fd5b83356001600160401b038111156115eb57600080fd5b6115f786828701611522565b909450925061160a9050602085016115ab565b90509250925092565b6000806040838503121561162657600080fd5b82356116318161148d565b915061163f602084016115ab565b90509250929050565b634e487b7160e01b600052604160045260246000fd5b604051601f8201601f191681016001600160401b038111828210171561168657611686611648565b604052919050565b60006001600160401b038211156116a7576116a7611648565b50601f01601f191660200190565b6000602082840312156116c757600080fd5b81356001600160401b038111156116dd57600080fd5b8201601f810184136116ee57600080fd5b80356117016116fc8261168e565b61165e565b81815285602083850101111561171657600080fd5b81602084016020830137600091810160200191909152949350505050565b60006001600160401b0382111561174d5761174d611648565b5060051b60200190565b600082601f83011261176857600080fd5b813560206117786116fc83611734565b82815260059290921b8401810191818101908684111561179757600080fd5b8286015b848110156117b9576117ac816115ab565b835291830191830161179b565b509695505050505050565b600080604083850312156117d757600080fd5b82356001600160401b03808211156117ee57600080fd5b818501915085601f83011261180257600080fd5b813560206118126116fc83611734565b82815260059290921b8401810191818101908984111561183157600080fd5b948201945b838610156118585785356118498161148d565b82529482019490820190611836565b9650508601359250508082111561186e57600080fd5b5061187b85828601611757565b9150509250929050565b60008060006060848603121561189a57600080fd5b833592506020840135915060408401356118b38161148d565b809150509250925092565b6000806000604084860312156118d357600080fd5b83356118de8161148d565b925060208401356001600160401b038111156118f957600080fd5b61190586828701611522565b9497909650939450505050565b6020808252600c908201526b3737ba10309036b2b6b132b960a11b604082015260600190565b600181811c9082168061194c57607f821691505b60208210810361196c57634e487b7160e01b600052602260045260246000fd5b50919050565b6000815461197f81611938565b6001828116801561199757600181146119ac576119db565b60ff19841687528215158302870194506119db565b8560005260208060002060005b858110156119d25781548a8201529084019082016119b9565b50505082870194505b5050505092915050565b600085516119f7818460208a016114bf565b601760f91b908301908152611a0f6001820187611972565b905069173932b0b1ba34b7b71760b11b81528385600a83013760009301600a019283525090949350505050565b6202aa8160ed1b815260008251611a5a8160038501602087016114bf565b9190910160030192915050565b604081526000611a7a60408301856114e3565b8281036020840152611a8c81856114e3565b95945050505050565b6402227aba7160dd1b815260008251611ab58160058501602087016114bf565b9190910160050192915050565b600080600080600060a08688031215611ada57600080fd5b8551611ae58161148d565b809550506020808701519450604087015193506060870151611b068161148d565b60808801519093506001600160401b03811115611b2257600080fd5b8701601f81018913611b3357600080fd5b8051611b416116fc82611734565b81815260059190911b8201830190838101908b831115611b6057600080fd5b928401925b82841015611b87578351611b788161148d565b82529284019290840190611b65565b80955050505050509295509295909350565b634e487b7160e01b600052603260045260246000fd5b634e487b7160e01b600052601160045260246000fd5b600060018201611bd757611bd7611baf565b5060010190565b8181038181111561090157610901611baf565b828152604060208201526000611c0a60408301846114e3565b949350505050565b60008451611c248184602089016114bf565b601760f91b908301908152611c3c6001820186611972565b905067173932b0b9b7b71760c11b81528351611c5f8160088401602088016114bf565b0160080195945050505050565b60008251611c7e8184602087016114bf565b9190910192915050565b60408152826040820152828460608301376000606084830101526000601f19601f85011682016060838203016020840152611cc660608201856114e3565b9695505050505050565b808202811582820484141761090157610901611baf565b8082018082111561090157610901611baf565b600081611d0957611d09611baf565b506000190190565b60008060008060808587031215611d2757600080fd5b8451611d328161148d565b8094505060208501519250604085015191506060850151611d528161148d565b939692955090935050565b601f82111561089e57600081815260208120601f850160051c81016020861015611d845750805b601f850160051c820191505b8181101561131757828155600101611d90565b81516001600160401b03811115611dbc57611dbc611648565b611dd081611dca8454611938565b84611d5d565b602080601f831160018114611e055760008415611ded5750858301515b600019600386901b1c1916600185901b178555611317565b600085815260208120601f198616915b82811015611e3457888601518255948401946001909101908401611e15565b5085821015611e525787850151600019600388901b60f8161c191681555b5050505050600190811b01905550565b600082611e7f57634e487b7160e01b600052601260045260246000fd5b500490565b60018060a01b0384168152826020820152606060408201526000611a8c60608301846114e3565b600060208284031215611ebd57600080fd5b81516001600160401b03811115611ed357600080fd5b8201601f81018413611ee457600080fd5b8051611ef26116fc8261168e565b818152856020838501011115611f0757600080fd5b611a8c8260208301602086016114bf565b60008451611f2a8184602089016114bf565b60609490941b6bffffffffffffffffffffffff191691909301908152601481019190915260340192915050565b6020808252602b908201527f496e697469616c697a61626c653a20636f6e7472616374206973206e6f74206960408201526a6e697469616c697a696e6760a81b606082015260800190565b60008351611fb48184602088016114bf565b835190830190611fc88183602088016114bf565b0194935050505056fea26469706673582212202796ba3c62a7fc0cbb05638d4fd432b1d8107ee5bc30f85f432d5ce6bbdbf00a64736f6c63430008130033",
    "linkReferences": {}
  },
  "methodIdentifiers": {
    "PERC_POINTS()": "caedeefd",
    "POSTER_ADDR()": "40238a76",
    "POSTER_TAG()": "2d43fef1",
    "POSTER_UID()": "f12d5c84",
    "SUSTAINABILITY_ADDR()": "1fb2f712",
    "SUSTAINABILITY_FEE()": "00f5afa8",
    "allowList(address)": "2848aeaf",
    "assessReason(string,bool)": "57a02bdf",
    "batchAllowList(address[],bool[])": "b50c99b7",
    "canClaim(address)": "bf3506c1",
    "claims(address)": "c6788bdd",
    "cookieAmount()": "e858d175",
    "cookieToken()": "a1638f57",
    "owner()": "8da5cb5b",
    "periodLength()": "d2ca2115",
    "reachInJar(address,string)": "c5393163",
    "reachInJar(string)": "500cae4c",
    "renounceOwnership()": "715018a6",
    "setAllowList(address,bool)": "7666f125",
    "setConfig(uint256,uint256,address)": "b8038b3e",
    "setUp(bytes)": "a4f9edbf",
    "target()": "d4b83992",
    "transferOwnership(address)": "f2fde38b"
  },
  "id": 64
}